:100000000C9447000C94A0110C94A0110C94A01116
:100010000C94A0110C94A0110C949A110C94A011A2
:100020000C94A0110C94A0110C94A0110C94A0118C
:100030000C94A0110C94A0110C94A0110C94A0117C
:100040000C94A0110C94A0110C94A0110C94A0116C
:100050000C94A0110C94A0110C94A0110C94A0115C
:100060000C94A0110C94A011F704F704F7042705D1
:100070002F053F05F704F70427052F050100016947
:10008000800169016F002344016F019180001124F8
:100090001FBECFEFD8E0DEBFCDBFECE7F0E040E021
:1000A00017C0B591A59135912591059107FD0CC01B
:1000B00095918591EF01F92FE82F05900D92A217E8
:1000C000B307D9F7FE0104C01D92A217B307E1F7E9
:1000D000ED38F40731F70E94710F0C946F00F8941B
:0200E000FFCF50
:1000E20020004572726F7220436F6D6D616E640005
:1000F200424C00436F727265637420436F6D6D6191
:100102006E6400746573740000000000000000005B
:1001120000000000000000000000000000000000DD
:10012200006261636B4C69676874005553415254B5
:0101320000CC
:08013300546D72205376630045
:05013B0049444C4500A1
:100140002F923F924F925F926F927F928F92AF92D7
:10015000BF92CF92DF92EF920F931F93CF93DF93D3
:1001600000D000D000D0CDB7DEB73B01882E5A01B9
:1001700019014115510521F0FA01608371838283D1
:100180002114310429F0C1010297839708F01AC1A4
:10019000E82C6301FFEFCF1ADF0AEF0AF301149195
:1001A00087FC1081812F90E00E9449114C2D3D2D3C
:1001B0002E2D892B19F036018E2CEACF1D3269F4D1
:1001C000E82C630152E0C50ED11CE11CE42FF32F93
:1001D000149127FD108101E00EC01B3259F4E82C68
:1001E000630182E0C80ED11CE11CE42FF32F1491AF
:1001F00027FD108100E02114310409F190E1291656
:10020000310429F43FC010E32114310421F1F8E056
:100210002F16310401F154F432E02316310421F594
:10022000412C512C612C50E4752E4BC04AE0241611
:10023000310439F050E125163104B1F43DC01033DA
:1002400019F13AE0232E312C4CEC442E542C642C22
:100250004CE0742E36C098E0292E312C412C512CC4
:10026000612C20E1722E2DC060E070E080E090E80B
:100270009101032C000C440B550B0E940D0F29011A
:100280003A011FC01033C1F4F6018491E7FC80816C
:100290008F7D883509F0B7CFAE2DC6010196A11D1F
:1002A000FC011491A7FD1081E2E0CE0ED11CE11CEF
:1002B000026060E1262E312C412C512C612C88E00B
:1002C000782EA0E060E070E0CB019101032C000CDF
:1002D000440B550B29833A834B835C83E0EDE10F9C
:1002E000EA3060F02FEB210F2A3110F4E9EC05C061
:1002F0002FE9210F2A3150F5E9EAE10F2E2F30E0E6
:10030000221533051CF5A7FD18C0461657066806CA
:10031000790680F029813A814B815C810E94A3108B
:100320006E0F711D811D911D61307105810530E8D1
:10033000930710F0AFEF01C0A1E0F6011491E7FCC4
:1003400010814FEFC41AD40AE40AC8CF202F2170BD
:10035000A114B104B1F0AA2349F051E0C51AD108A3
:10036000E108F501C082D182E2820BC001FF1DC00D
:10037000F2E0CF1AD108E108F501C082D182E28211
:1003800014C0A7FF12C0222329F060E070E080E0D3
:1003900090E804C06FEF7FEF8FEF9FE722E230E03D
:1003A000309305012093040109C0222381F0909528
:1003B0008095709561957F4F8F4F9F4F462F372FB8
:1003C000282F12C040E030E020E090E00DC097FF01
:1003D000F5CF82E290E090930501809304016FEFE6
:1003E0007FEF8FEF9FE7EACF642F732F822F269640
:1003F0000FB6F894DEBF0FBECDBFDF91CF911F9136
:100400000F91EF90DF90CF90BF90AF908F907F9043
:0C0410006F905F904F903F902F900895E8
:10041C002F923F924F925F926F927F928F92AF92F8
:10042C00BF92CF92DF92EF920F931F93CF93DF93F4
:10043C001C013A01862E59012801C9010E944A105B
:10044C008C01892B09F406C188E290E00E944A10C5
:10045C00EC01892BA1F0188F0F8BA50165EA70E0D8
:10046C00C8010E94711121E0A21AB1088F89988DE0
:10047C00A80EB91E61147104810429F431C0C8019D
:10048C000E94B310E7C0F301849187FC8081898FAF
:10049C00F301849187FC8081882301F1AE01465ED3
:1004AC005F4FA82DC3010196A11DE8E06E0E711CD3
:1004BC00811C2A2FFC017491A7FD7081FA017193A4
:1004CC00AF01E82FF92F0196A11D349127FD308142
:1004DC00332321F086159705A80559F718A201C0FA
:1004EC00198EF3E0FE1520F40F2EF3E0EF2EF02D15
:1004FC00EE8AE9A21AA28E010E5F1F4FC8010E945C
:10050C008E11CE010C960E948E11D987C88784E07B
:10051C0090E08E1991099D878C87DB8BCA8B1BA26F
:10052C001CA21DA21EA21FA2A201B101C5010E9404
:10053C00811099838883C114D10419F0F601D183F9
:10054C00C0830FB6F8940F9280918F018F5F8093C8
:10055C008F0180917B0190917C01892BD1F5D093F7
:10056C007C01C0937B0180918F01813009F041C0E7
:10057C0086E091E00E94E0108FE091E00E94E01094
:10058C0088E191E00E94E01081E291E00E94E0108D
:10059C008EE491E00E94E01085E491E00E94E0106E
:1005AC008CE391E00E94E01083E391E00E94E01064
:1005BC008AE291E00E94E0108EE491E090937A013F
:1005CC008093790185E491E0909378018093770191
:1005DC0010C080918D0181110CC0E0917B01F091D4
:1005EC007C0196898E89891720F0D0937C01C09369
:1005FC007B0180918A018F5F80938A018E89909113
:10060C008E01981710F480938E0190E09C01220FBC
:10061C00331F220F331F220F331F820F931FB8017A
:10062C008A5F9E4F0E942F0F0F900FBE80918D01FD
:10063C00882361F0E0917B01F0917C0196898E8991
:10064C00981730F40E94470A81E005C081E003C08E
:10065C0081E001C08FEFDF91CF911F910F91EF904F
:10066C00DF90CF90BF90AF908F907F906F905F9006
:08067C004F903F902F9008956C
:100684000F931F93CF93DF938230910510F482E090
:1006940090E0E0910201F091030120E030E0A0E05D
:1006A400B0E0309719F140815181028113814817DC
:1006B4005907C8F08417950769F4109731F012961A
:1006C4000C93129713961C9327C000930201109366
:1006D400030122C02115310519F04217530718F4FC
:1006E4009A01BD01EF01DF01F801DBCF21153105CE
:1006F400F9F0281B390B2430310580F48A819B8161
:100704006115710521F0FB019383828304C09093EA
:10071400030180930201FE01329644C0FE01E20F00
:10072400F31F8193919322503109398328833AC06E
:100734002091000130910101232B41F420916B01A0
:1007440030916C01309301012093000120916901E3
:1007540030916A012115310541F42DB73EB740911E
:100764006D0150916E01241B350BE0910001F09155
:100774000101E217F307A0F42E1B3F0B28173907DA
:1007840078F0AC014E5F5F4F2417350748F04E0FE9
:100794005F1F50930101409300018193919302C024
:1007A400E0E0F0E0CF01DF91CF911F910F91089528
:1007B400CF93DF93009709F481C0FC013297138231
:1007C4001282A0910201B0910301109781F420815B
:1007D4003181820F931F209100013091010128176C
:1007E400390751F5F0930101E093000167C0ED0171
:1007F40020E030E0CE17DF0740F44A815B819E01A0
:1008040041155105F1F0EA01F5CFD383C28340814C
:100814005181840F951FC817D90759F4888199818C
:10082400840F951F0296918380838A819B81938391
:1008340082832115310529F4F0930301E093020129
:100844003DC0E901FB83EA8349915991C40FD51F47
:10085400EC17FD0761F480819181840F951F029646
:10086400E90199838883828193819B838A83E0E071
:10087400F0E012968D919C911397009719F0FD0169
:10088400DC01F7CF8D919C9111979D012E5F3F4F15
:10089400820F931F2091000130910101281739071D
:1008A40069F4309729F4109203011092020102C0F6
:1008B40013821282B0930101A0930001DF91CF91C2
:0208C400089595
:1008C600CF93DF9300D000D000D0CDB7DEB7CE01F6
:1008D60001964C0144244394E12CF12C512CC82E52
:1008E600D92CE0918501F09186018081882309F455
:1008F600DCC00580F681E02DA080B1800E947811D1
:10090600C4010E941B098C01898181114BC00A1503
:100916001B05B8F10E949507E0918501F0918601CB
:100926000580F681E02D66807780C30103960E94DC
:10093600C30ED30153968C91539782FF17C01D9611
:100946006D917C911E976A0D7B1D9501A801C301CF
:100956000E94410E882369F00E2D1F2D2E2D3F2D4E
:10096600A501652DC3010E944D0B03C08E7FF301C7
:10097600838BD3015196ED91FC915297C301099552
:1009860087C0452DB501601B710B80918101909147
:1009960082010E94B00F0E949507811179C00E94C2
:1009A600470A76C00E94950773C0898188230CF494
:1009B6006FC0AC80BD80F50183859485892B21F0BD
:1009C600C50103960E94C30ECE0106960E941B091E
:1009D600E9810E2E000CFF0BEA30F10508F058C035
:1009E600EC5CFF4F0C947E11D50153962C915397D6
:1009F600216053962C9353972A813B811D966D91C6
:100A06007C911E97620F731FAC01C5010E94410EB7
:100A16008823F1F1D5015196ED91FC915297C501CC
:100A26000995F501838982FF33C04A815B818585FB
:100A36009685480F591F0E2D1F2D2E2D3F2D652DE6
:100A4600C5010E944D0B24C0D50153968C91539736
:100A56008E7F53968C931CC0F50123892160238BCE
:100A66006A817B8176876587680F791F9C01AC0157
:100A7600C5010E94410E0CC0D50153968C9181FD93
:100A860004C0C5010E94B31003C08E7FF501838B9D
:100A96004E2D5F2D6C2D7D2D8091810190918201CF
:100AA6000E94EF06811181CF1CCF0E947811C401EC
:100AB6000E941B098C018981811174CFE091830109
:100AC600F09184018081442D8111452DAE2CBF2CDF
:020AD60059CFF6
:100AD8002F923F924F926F927F928F92BF92CF92B6
:100AE800DF92EF92FF920F931F93CF93DF93CDB7CF
:100AF800DEB728970FB6F894DEBF0FBECDBF7C01D6
:100B08004E835F8368873D832C8310E0BB24B394B6
:100B18003C0180E8882E1301482CEAE12E0E311C96
:100B2800411CFBE16F0E711C811C670188E0C80E37
:100B3800D11C0FB6F8940F92F701928D838D9817F8
:100B480010F00230F1F4202F4E815F816885C701D3
:100B58000E948B09F7019189992361F0F1E1EF0E69
:100B6800F11CB70180E80E949B0B882331F00E949A
:100B7800470A03C081110E94470A0F900FBE81E007
:100B880055C08C819D81892B21F40F900FBE80E088
:100B98004DC0111105C0CE0101960E9416111B2DE2
:100BA8000F900FBE0E9478110FB6F8940F92F701BC
:100BB800858D8F3F09F4158EF701868D8F3F09F4D7
:100BC800168E0F900FBEBE016C5F7F4FCE0101964F
:100BD8000E94A70D811124C00FB6F8940F92F1015D
:100BE800949147FC9081F301849187FC80810F9058
:100BF8000FBE98130FC06C817D81C6010E946F10D3
:100C0800C7010E94F80A0E949507811192CF0E949D
:100C1800470A8FCFC7010E94F80A0E94950789CF1B
:100C2800C7010E94F80A0E94950780E028960FB62F
:100C3800F894DEBF0FBECDBFDF91CF911F910F910A
:100C4800FF90EF90DF90CF90BF908F907F906F9044
:080C58004F903F902F9008958A
:100C6000CF92DF92EF92FF920F931F93CF93DF9378
:100C70008091890181119FC0E0907501F09076010B
:100C80008FEFE81AF80AF0927601E0927501E1140C
:100C9000F104B9F48091790190917A012091770162
:100CA0003091780130937A01209379019093780103
:100CB0008093770180918B018F5F80938B010E94DD
:100CC000910F8091710190917201E816F90610F46C
:100CD000D12C53C0D12CCC24C394E0917901F09154
:100CE0007A018081811107C08FEF9FEF909372018D
:100CF0008093710142C0E0917901F0917A01058001
:100D0000F681E02DC681D7818A819B81E816F9069C
:100D100028F490937201809371012FC08E010E5FB1
:100D20001F4FC8010E94C30E8C899D89892B21F019
:100D3000CE010C960E94C30E8E8990918E01981759
:100D400010F480938E0190E09C01220F331F220F3C
:100D5000331F220F331F820F931FB8018A5F9E4FEC
:100D60000E942F0FE0917B01F0917C019E89868982
:100D7000981708F4B2CFDC2CB0CFE0917B01F09152
:100D80007C01868990E0FC01EE0FFF1FEE0FFF1F34
:100D9000EE0FFF1F8E0F9F1FFC01EA5FFE4F808149
:100DA000823010F0DD24D39480918C01882369F087
:100DB000DD24D3940AC0809173019091740101964F
:100DC0009093740180937301D12C8D2DDF91CF917D
:0E0DD0001F910F91FF90EF90DF90CF9008954C
:100DDE006F927F928F929F92AF92BF92CF92DF923D
:100DEE00EF92FF920F931F93CF93DF9300D000D01B
:100DFE001F92CDB7DEB78C015B015D834C83E12C76
:100E0E00992493943C0180E8882E6801E1E1CE0E8E
:100E1E00D11C0FB6F8940F92F801F28CFF20B9F0A6
:100E2E00B501C8010E94E90FFA94F801F28E80858F
:100E3E00882349F0085F1F4FB80180E80E949B0B82
:100E4E0081110E94470A0F900FBE81E053C08C8122
:100E5E009D81892B21F40F900FBE80E04BC0E110D5
:100E6E0005C0CE0101960E941611E92C0F900FBEFF
:100E7E000E9478110FB6F8940F92F801858D8F3F6E
:100E8E0009F4158EF801868D8F3F09F4168E0F909A
:100E9E000FBEBE016C5F7F4FCE0101960E94A70D63
:100EAE0081111BC0882DB3010E949210882379F006
:100EBE006C817D81C6010E946F10C8010E94F80AE4
:100ECE000E9495078111A5CF0E94470AA2CFC801A3
:100EDE000E94F80A0E9495079CCFC8010E94F80A4A
:100EEE000E949507882DB3010E949210882309F461
:100EFE0090CF80E00F900F900F900F900F90DF919A
:100F0E00CF911F910F91FF90EF90DF90CF90BF90F8
:0C0F1E00AF909F908F907F906F9008958F
:100F2A00DF92EF92FF920F931F93CF93DF930FB647
:100F3A00F8940F9280918901815080938901809160
:100F4A008901811163C080918F01811133C061C011
:100F5A00D7011596ED91FC911697C681D781CE01DE
:100F6A000C960E94C30E8E010E5F1F4FC8010E948D
:100F7A00C30E8E8990918E01981710F480938E017A
:100F8A0090E09C01220F331F220F331F220F331FC1
:100F9A00820F931FB8018A5F9E4F0E942F0FE09124
:100FAA007B01F0917C019E898689981768F0D0921E
:100FBA008C010AC0C0E0D0E00F2EFCE3EF2EF1E076
:100FCA00FF2EF02DDD24D394F70180818111C0CF4B
:100FDA00CD2B11F00E94910FC0917301D091740131
:100FEA00209761F011E00E943006811110938C0164
:100FFA002197C9F7109274011092730180918C01A4
:10100A00882331F00E94470A81E003C080E001C0D2
:10101A0080E00F900FBEDF91CF911F910F91FF904B
:06102A00EF90DF90089535
:10103000EF92FF920F931F93CF93DF93CDB7DEB75D
:10104000C25DD1090FB6F894DEBF0FBECDBFAC01B3
:1010500060E8CE0101960E94C21042EE50E060E0CE
:10106000CE0101960E9489110097E1F08E01015E88
:101070001F4FE12CF12C2FEFE21AF20AAC0160E8CD
:10108000C8010E94C21042EE50E060E080E090E0B3
:101090000E948911025E1F4F009769F782E0E816EF
:1010A000F10481F02EE030E044EE50E060E0CE014B
:1010B0008B549F4F0E941D10CE018B549F4F0E9456
:1010C0005D102AC0BE01615E7F4F80E822EF30E0F4
:1010D00040E00E94500F892B81F4BE01635C7F4F7A
:1010E00080E80E949611907899231CF401979F6FD5
:1010F0000196682F8FEF0E94401120E130E045EF0C
:1011000050E060E0CE018B549F4F0E941D10CE0135
:101110008B549F4F0E945D10CE52DF4F0FB6F89454
:10112000DEBF0FBECDBFDF91CF911F910F91FF901A
:04113000EF9008959F
:1011340080918901882321F081E080938C010895B6
:1011440010928C01A0917B01B0917C01E0917B0114
:10115400F0917C012D913C918789908D82179307A2
:1011640060F060917B0170917C0180917B01909192
:101174007C01675E7F4F0E94FC1020918E01822FBC
:1011840090E0FC01EE0FFF1FEE0FFF1FEE0FFF1F9D
:10119400E80FF91FEA5FFE4F3081311111C0215071
:1011A400822F90E0FC01EE0FFF1FEE0FFF1FEE0FEA
:1011B400FF1FE80FF91FEA5FFE4F3081332379F3F5
:1011C400AC01440F551F440F551F440F551F480FC2
:1011D400591FDA01AA5FBE4F1196ED91FC91129747
:1011E4000280F381E02D1296FC93EE931197475FF2
:1011F4005E4FE417F50729F442815381FD015283C0
:101204004183FC01EE0FFF1FEE0FFF1FEE0FFF1FC8
:101214008E0F9F1FFC01EA5FFE4F0180F281E02DDB
:101224008681978190937C0180937B0120938E012A
:0212340008951B
:10123600AF92BF92CF92DF92EF92FF920F931F93DE
:10124600CF93DF936C010E9436117C0180917D0162
:1012560090917E01E816F90608F048C030C0058076
:10126600F681E02DA080B180C681D7818E010D5F09
:101276001F4FC8010E94C30EE989FA89CE0109955C
:101286008B8982FF1CC08D859E858A0D9B1DA816A5
:10129600B90660F49C838B83DA87C987B80180918D
:1012A6008501909186010E94100E09C000E010E0B1
:1012B60020E030E0A50160E0CE010E944D0BE091F8
:1012C6008501F091860180818111C9CF80918301CA
:1012D600909184019093860180938501F093840117
:1012E600E093830181E0F601808302C0F60110825B
:1012F600F0927E01E0927D01C701DF91CF911F91AF
:101306000F91FF90EF90DF90CF90BF90AF90089530
:101316000F931F93CF93DF93EC01022F1A8D2C8D21
:1013260021110CC088819981892B09F042C08C81DA
:101336009D810E94BB0C1D821C8242C0011117C0F8
:1013460030E08A819B810E941D102C8D8A819B81B1
:10135600820F911D9B838A832C813D81821793077F
:1013660050F1888199819B838A8380E029C030E08F
:101376008E819F810E941D108C8D90E091958195A4
:1013860091092E813F81280F391F3F832E83488183
:1013960059812417350730F42C813D81820F931F24
:1013A6009F838E83023049F4112349F0115080E067
:1013B60007C080E005C080E003C080E001C080E097
:0E13C6001F5F1A8FDF91CF911F910F91089535
:1013D4000F920FB6F8940F921F9211242F923F92FE
:1013E4004F925F926F927F928F929F92AF92BF9231
:1013F400CF92DF92EF92FF920F931F932F933F931D
:101404004F935F936F937F938F939F93AF93BF9308
:10141400CF93DF93EF93FF93A0917B01B0917C0175
:101424000DB60D920EB60D9213BE0E9430068111B8
:101434000E949A08A0917B01B0917C01CD91CDBF0F
:10144400DD91DEBFFF91EF91DF91CF91BF91AF911D
:101454009F918F917F916F915F914F913F912F91C8
:101464001F910F91FF90EF90DF90CF90BF90AF90BE
:101474009F908F907F906F905F904F903F902F90B0
:0A1484001F900F900FBE0F90089507
:10148E000F920FB6F8940F921F9211242F923F9243
:10149E004F925F926F927F928F929F92AF92BF9276
:1014AE00CF92DF92EF92FF920F931F932F933F9362
:1014BE004F935F936F937F938F939F93AF93BF934E
:1014CE00CF93DF93EF93FF93A0917B01B0917C01BB
:1014DE000DB60D920EB60D920E949A08A0917B0148
:1014EE00B0917C01CD91CDBFDD91DEBFFF91EF912B
:1014FE00DF91CF91BF91AF919F918F917F916F911E
:10150E005F914F913F912F911F910F91FF90EF900F
:10151E00DF90CF90BF90AF909F908F907F906F9005
:10152E005F904F903F902F901F900F900FBE0F9097
:02153E0008950E
:10154000FF920F931F93CF93DF93EC01F62E009140
:1015500075011091760180917B0190917C0102963A
:101560000E94C30ECF3F8FEFD80769F4FF2059F0D8
:1015700060917B0170917C016E5F7F4F8AE291E008
:101580000E942F0F2FC0C00FD11FE0917B01F0915F
:101590007C01D383C283C017D10768F460917B01BB
:1015A00070917C0180917701909178016E5F7F4FFF
:1015B0000E94100E17C060917B0170917C01809198
:1015C000790190917A016E5F7F4F0E94100E809199
:1015D000710190917201C817D90720F4D09372015C
:1015E000C0937101DF91CF911F910F91FF900895EA
:1015F000CF92DF92EF920F931F93CF938C010FB690
:10160000F8940F92FC01C68D1C16C4F481898111D7
:1016100006C014C0F8018189811107C00FC068019C
:10162000F1E1CF0ED11C80E8E82E8E2DB6010E948C
:101630009B0B81110E949211C15061F78FEFF8014D
:10164000868F0F900FBE0FB6F8940F92C58D1C16A3
:10165000C4F48085811106C014C0F8018085811111
:1016600007C00FC06801F8E0CF0ED11C80E8E82E5B
:101670008E2DB6010E949B0B81110E949211C150C8
:1016800061F78FEFF801858F0F900FBECF911F91FB
:0A1690000F91EF90DF90CF900895C6
:10169A00EF92FF920F931F93CF93DF9300D000D066
:1016AA001F92CDB7DEB7E0918101F09182013097A8
:1016BA0081F1780169835B834A839D838C836630D9
:1016CA00FCF40E94EE10823069F4AE014F5F5F4F66
:1016DA0060E800E0970180918101909182010E9467
:1016EA006C0518C0AE014F5F5F4F60E800E020E074
:1016FA0030E080918101909182010E946C050AC0BC
:10170A00AE014F5F5F4F60E800E0CF010E94FB0C23
:10171A0001C080E00F900F900F900F900F90DF9113
:0C172A00CF911F910F91FF90EF90089558
:101736000F931F93CF93DF93A82FCB010596A11D7F
:10174600FC015A2F0E946211FB01C681D7818E01CE
:10175600045F1F4FC8010E94C30E80918901811149
:101766001CC00A501109C8010E94C30E8E899091AF
:101776008E01981710F480938E0190E09C01220F41
:10178600331F220F331F220F331F820F931FB801FF
:101796008A5F9E4F0E942F0F05C0B8018CE391E02F
:1017A6000E942F0FE0917B01F0917C019E89868932
:1017B600891720F481E080938C0101C080E0DF91DD
:0817C600CF911F910F910895CE
:1017CE00CF92DF92EF920F931F93CF93DF93E901A6
:1017DE00009721F4888199810097A9F1DC01119677
:1017EE00FC013081332349F16A01E62EF601249182
:1017FE00E7FC2081FFEFCF1ADF0AEF0A222321F048
:10180E003213F4CFCD01EACF7A2F2B2F6A01E62EB9
:10181E00F6011491E7FC1081311303C011971C924D
:10182E0010C0EFEFCE1ADE0AEE0A1111F1CF3D9184
:10183E003111EACF70E020E004C070E020E080E0DB
:10184E0090E078832983DF91CF911F910F91EF90D4
:06185E00DF90CF90089519
:10186400CF93DF93EC010FB6F8940F92E881F981DE
:101874008B8D2C8D90E030E0829FA001839F500DD2
:10188400929F500D11244E0F5F1F5D834C831A8E5F
:10189400FB83EA830197829FA001839F500D929F4F
:1018A400500D1124CF01840F951F9F838E838FEFDA
:1018B4008D8F8E8F61110DC08885882391F02896B5
:1018C400BE0180E80E949B0B882359F00E94470ABE
:1018D40008C0CE0108960E94E010CE0141960E94F5
:0E18E400E0100F900FBE81E0DF91CF910895CC
:1018F200CF93DF93CDB7DEB76E970FB6F894DEBF06
:101902000FBECDBF25E031E040E085E0F901DE0108
:101912001196742F0E940911FE01369689E1DF01AA
:101922001D928A95E9F7E12CF12CD12C00E00E945E
:101932005A11182F0E9452118FE19EE40197F1F77C
:1019420000C000001D3059F4B701CE0101960E947B
:1019520018088DE00E945211ED2CF02EE8CFE1E044
:10196200F0E0EC0FFD1FEE0DFF1D1083D701119665
:041972007D01DDCF47
:101976000F931F93CF93DF93FC01892B79F182A1FB
:10198600815082A3268991A1291751F181112AC07C
:10199600EF018F010E5F1F4FC8010E94C30E89A180
:1019A6008E8B24E030E0281B31093D872C879091EF
:1019B6008E01981710F480938E0190E09C01220FFF
:1019C600331F220F331F220F331F820F931FB801BD
:1019D6008A5F9E4F0E942F0F81E005C080E003C002
:1019E60080E001C080E0DF91CF911F910F910895B3
:1019F600EF92FF920F931F93CF93DF937901FC0130
:101A0600728D338D731710F00230F1F4202FEC0134
:101A16001E8D8A8DCE010E948B091F3F89F489890C
:101A26008823A1F06196BE0180E80E949B0B882363
:101A360079F0E114F10471F081E0F70180830BC0C5
:101A46001F5F1E8F81E007C080E005C081E003C0F4
:101A560081E001C081E0DF91CF911F910F91FF904E
:041A6600EF90089560
:101A6A0003E311E00F2EF6E0EF2EF1E0FF2EF02D4A
:101A7A0080919001882329F10FB6F8940F92D8012A
:101A8A001596ED91FC911697C681D781CE010296E3
:101A9A000E94C30E80918F01815080938F018091A3
:101AAA0090018150809390010F900FBE8F89988D7D
:101ABA000E94B310CE010E94B3108091900181114F
:101ACA00DBCFF7018081823010F00E94470A0E9422
:041ADA00CD0FCECF8F
:101ADE00A89590EC88E10FB6F894A89580936000D5
:101AEE000FBE90936000A0917B01B0917C01CD91CF
:101AFE00CDBFDD91DEBFFF91EF91DF91CF91BF9111
:101B0E00AF919F918F917F916F915F914F913F9187
:101B1E002F911F910F91FF90EF90DF90CF90BF907C
:101B2E00AF909F908F907F906F905F904F903F906F
:101B3E002F901F900F900FBE0F90089581E0089583
:101B4E00CF93DF930FB6F8940F92209175013091D9
:101B5E007601DB014D915C914F3FBFEF5B07F1F0DA
:101B6E00EC01E981FA81A0918B01B881BA1719F0C5
:101B7E002E173F07A8F42E1B3F0B2417350748F4EA
:101B8E00FB01421B530B518340830E94161180E0D0
:101B9E0008C0FB011182108281E003C080E001C009
:0C1BAE0081E00F900FBEDF91CF910895F1
:101BBA00CF92DF92EF920F931F930F2EFFE6CF2E55
:101BCA00F1E0DF2EF02DE12C00E010E025E530E019
:101BDA004BE351E060E085E39DE00E940E02813014
:101BEA00A1F40E94700E813081F4F8948FEF9FEF78
:101BFA00909372018093710181E080938D0110921C
:101C0A007601109275010E946F0D1F910F91EF904E
:061C1A00DF90CF90089559
:101C2000CF93DF93EB01488159814F3F2FEF52074C
:101C300021F4FC01A781B0850DC0DC01139601C021
:101C4000DF011296ED91FC911397208131814217AB
:101C50005307B0F71296ED91FC911397FB83EA833B
:101C6000D583C483BD83AC831396DC93CE93129744
:101C700099878887FC0120812F5F2083DF91CF9196
:021C80000895C5
:101C8200FC0174836383928781874617570790F01C
:101C9200421B530B8585968548175907E0F4BF010F
:101CA2006D5F7F4F80918301909184010E94100E9D
:101CB20080E008954217530718F46217730768F417
:101CC200BF016D5F7F4F80918501909186010E94D7
:0E1CD200100E80E0089581E0089581E00895ED
:101CE000CF92DF92EF920F931F930E949A0E8091F2
:101CF000810190918201892BB1F00F2EFFE7CF2E49
:101D0000F1E0DF2EF02D0F2EF3E0EF2EF02D00E0AE
:101D100010E025E530E043E351E060E083E694E045
:101D20000E940E0201C080E01F910F91EF90DF90A2
:041D3000CF900895B3
:101D34000FB6F8940F928091810190918201892BC2
:101D4400E9F480E691E00E94E01087E591E00E94CA
:101D5400E01080E691E0909386018093850187E509
:101D640091E0909384018093830140E065E08AE0F0
:101D74000E94EA0E90938201809381010F900FBE1E
:021D84000895C0
:101D8600CF93DF93FC01A085B185C281D381848185
:101D960095819D838C83C481D581828193819B8328
:101DA6008A8311968D919C911297E817F90731F461
:101DB6008481958112969C938E9311971186108635
:0E1DC6008C9181508C938C91DF91CF91089578
:101DD4000F931F93CF93DF93082F162F869FC00175
:101DE40011244F960E944A10EC01009771F01111D2
:101DF40003C09983888303C04F96998388830B8F8C
:101E04001C8F61E0CE010E94320CCE01DF91CF9194
:061E14001F910F910895DB
:101E1A00A1E21A2EAA1BBB1BFD010DC0AA1FBB1FE4
:101E2A00EE1FFF1FA217B307E407F50720F0A21B56
:101E3A00B30BE40BF50B661F771F881F991F1A94C3
:101E4A0069F760957095809590959B01AC01BD01ED
:041E5A00CF01089517
:101E5E00CF93DF939C01FB01DC011196CD91DC91B8
:101E6E001297D383C2838C819D81958384838C81C9
:101E7E009D81DC0113967C936E9312977D836C8308
:101E8E0031872087F90180818F5F8083DF91CF9129
:021E9E000895A5
:101EA000CF92DF92EF926B01E82EF6018491E7FC6E
:101EB0008081F901549147FD508185130BC088231F
:101EC00041F08FEFC81AD80AE80A2F5F3F4F4F4FF3
:101ED000ECCF582F90E0851B9109EF90DF90CF90C9
:021EE000089563
:101EE20087E690E00E943610559AC12CD12CEE2440
:101EF200E39400E010E025E530E043E251E060E0E9
:101F020084E891E10E940E0225E530E04DE251E0C5
:101F120060E089E79CE00E940E020E94DD0DFFCF87
:101F2200E0917901F0917A018081811107C08FEFF0
:101F32009FEF90937201809371010895E09179016E
:101F4200F0917A010580F681E02D0680F781E02D7F
:0E1F52008281938190937201809371010895B2
:101F6000CF93DF93EC010FB6F8940F928D8D8F3FD6
:101F700009F41D8E8E8D8F3F09F41E8E0F900FBEBB
:101F80008A8D811104C0CE0141960E940410CE01B9
:0A1F90000E94F80ADF91CF91089536
:101F9A008FE380937E0080B7877F80BF80B7806899
:101FAA0080BF83B7817F83BF0FB6F8940F9283B740
:101FBA00816083BF85B7806685BF8F7D85BF0F909F
:081FCA000FBE889513BE0895B7
:101FD200FC01248D2223B1F030E046815781420F6B
:101FE200531F57834683848195814817590720F0F0
:101FF2008081918197838683CB014681578160E8F6
:062002000E941D1008956C
:102008000F931F93CF938B01C42F60917B01709125
:102018007C01645F7F4F0E942F0FCC2311F00FEFDC
:102028001FEF6C2FC8010E94A00ACF911F910F913A
:02203800089509
:10203A00CF92DF92EF92DC016A01E62E280F391F58
:10204A00A217B30751F0F6014491E7FC40814D9382
:10205A004FEFC41AD40AE40AF3CFEF90DF90CF907F
:02206A000895D7
:10206C009093C5008093C400E0ECF0E08081826026
:10207C008083E1ECF0E0808188618083E2ECF0E029
:08208C008081866080830895C5
:10209400CF93DF93EC010E947811CE010E9442039A
:1020A400EC010E949507209711F40E942C11CE0197
:0620B400DF91CF910895B9
:1020BA00CF93DF93EC018881882331F021960E9427
:1020CA00521189918111FBCF8AE00E945211DF914E
:0420DA00CF91089505
:1020DE00CF93DF93EB0160917B0170917C01645F84
:1020EE007F4F0E94100E61E0CE010E94A00ADF9188
:0420FE00CF910895E1
:10210200FC0160833197708331971082319720E808
:10211200208331971082779740833197508383973A
:0221220008951E
:102124000FB6F8940F92A82FCB014A96A11DFC017B
:102134009491A7FD90810F900FBE81E0911180E0F2
:022144000895FC
:10214600DB018F939F930E942111BF91AF91A29FB4
:10215600800D911DA39F900DB29F900D112408959F
:10216600CF93DF93009741F0EC010E947811CE01E6
:0E2176000E94DA030E949507DF91CF91089531
:102184009A01462FDC01F901549147FD50815D937A
:0E219400552321F02F5F3F4F4F4FF5CF089599
:1021A200A29FB001B39FC001A39F700D811D112496
:0E21B200911DB29F700D811D1124911D089585
:1021C000FC010396928381832FEF3FEF34832383B7
:0C21D00096838583908787831082089592
:1021DC0080918D01882331F080918901882321F031
:0C21EC0080E0089581E0089582E00895ED
:1021F800259A2D9A2FE78AE196E021508040904059
:0A220800E1F700C000001D9AF5CFB9
:10221200992777FD05C005900D920197E1F7089582
:0A22220001900D920197E1F7089575
:10222C0020918B01FC012083209175013091760166
:06223C00328321830895A6
:102242000E94D110A59F900DB49F900DA49F800D68
:06225200911D1124089506
:10225800259A2D9A83ED90E30197F1F700C00000CD
:042268001D9AF8CFF4
:10226C000FB6F8940F9280917501909176010F90B2
:04227C000FBE0895F4
:1022800094B5936294BD95B59A6095BD87BD68BDC0
:022290000895AF
:1022920091110C949D11803219F089508550C8F724
:0222A20008959D
:1022A400E0ECF0E0908195FFFDCF8093C6000895A7
:1022B400E0ECF0E080818823ECF78091C60008957B
:1022C40057FD03C0659175910895619171910895C9
:0E22D4002AE030E040E050E00E94A0000895B3
:0E22E200DC0101C06D9341505040E0F70895BB
:0C22F000809189018F5F8093890108951F
:0C22FC00EE0FFF1F0590F491E02D0994F7
:0A23080065E08FEF0E944011FFCF47
:0A23120027E831E00E94E70B089570
:08231C00FC01118610860895F2
:0823240081E080938C01089513
:08232C000E946A11CB01089523
:062334000E94EA09189561
:06233A0099278827089591
:042340000C940000F9
:06234400000091012000E1
:00000001FF
